{
  "contractName": "FundRaising",
  "abi": [
    {
      "inputs": [
        {
          "internalType": "uint256",
          "name": "_deadline",
          "type": "uint256"
        },
        {
          "internalType": "uint256",
          "name": "_goalInt",
          "type": "uint256"
        },
        {
          "internalType": "uint256",
          "name": "_goalFloat",
          "type": "uint256"
        },
        {
          "internalType": "address",
          "name": "creator",
          "type": "address"
        },
        {
          "internalType": "address",
          "name": "_fundRecipient",
          "type": "address"
        }
      ],
      "stateMutability": "nonpayable",
      "type": "constructor"
    },
    {
      "anonymous": false,
      "inputs": [
        {
          "indexed": false,
          "internalType": "address",
          "name": "_from",
          "type": "address"
        },
        {
          "indexed": false,
          "internalType": "uint256",
          "name": "_value",
          "type": "uint256"
        },
        {
          "indexed": false,
          "internalType": "uint256",
          "name": "_raisedAmount",
          "type": "uint256"
        }
      ],
      "name": "Donation",
      "type": "event"
    },
    {
      "anonymous": false,
      "inputs": [
        {
          "indexed": false,
          "internalType": "uint256",
          "name": "_raisedAmount",
          "type": "uint256"
        }
      ],
      "name": "GoalReached",
      "type": "event"
    },
    {
      "inputs": [],
      "name": "admin",
      "outputs": [
        {
          "internalType": "address",
          "name": "",
          "type": "address"
        }
      ],
      "stateMutability": "view",
      "type": "function",
      "constant": true
    },
    {
      "inputs": [],
      "name": "completed",
      "outputs": [
        {
          "internalType": "bool",
          "name": "",
          "type": "bool"
        }
      ],
      "stateMutability": "view",
      "type": "function",
      "constant": true
    },
    {
      "inputs": [
        {
          "internalType": "address",
          "name": "",
          "type": "address"
        }
      ],
      "name": "contributions",
      "outputs": [
        {
          "internalType": "uint256",
          "name": "",
          "type": "uint256"
        }
      ],
      "stateMutability": "view",
      "type": "function",
      "constant": true
    },
    {
      "inputs": [],
      "name": "deadline",
      "outputs": [
        {
          "internalType": "uint256",
          "name": "",
          "type": "uint256"
        }
      ],
      "stateMutability": "view",
      "type": "function",
      "constant": true
    },
    {
      "inputs": [],
      "name": "fundRecipient",
      "outputs": [
        {
          "internalType": "address payable",
          "name": "",
          "type": "address"
        }
      ],
      "stateMutability": "view",
      "type": "function",
      "constant": true
    },
    {
      "inputs": [],
      "name": "goal",
      "outputs": [
        {
          "internalType": "uint256",
          "name": "",
          "type": "uint256"
        }
      ],
      "stateMutability": "view",
      "type": "function",
      "constant": true
    },
    {
      "inputs": [],
      "name": "minimumContribution",
      "outputs": [
        {
          "internalType": "uint256",
          "name": "",
          "type": "uint256"
        }
      ],
      "stateMutability": "view",
      "type": "function",
      "constant": true
    },
    {
      "inputs": [],
      "name": "raisedAmount",
      "outputs": [
        {
          "internalType": "uint256",
          "name": "",
          "type": "uint256"
        }
      ],
      "stateMutability": "view",
      "type": "function",
      "constant": true
    },
    {
      "inputs": [],
      "name": "totalContributors",
      "outputs": [
        {
          "internalType": "uint256",
          "name": "",
          "type": "uint256"
        }
      ],
      "stateMutability": "view",
      "type": "function",
      "constant": true
    },
    {
      "inputs": [],
      "name": "contribute",
      "outputs": [],
      "stateMutability": "payable",
      "type": "function",
      "payable": true
    },
    {
      "inputs": [],
      "name": "getBalance",
      "outputs": [
        {
          "internalType": "uint256",
          "name": "",
          "type": "uint256"
        }
      ],
      "stateMutability": "view",
      "type": "function",
      "constant": true
    },
    {
      "inputs": [],
      "name": "getRefund",
      "outputs": [],
      "stateMutability": "nonpayable",
      "type": "function"
    },
    {
      "inputs": [
        {
          "internalType": "address",
          "name": "newRecipient",
          "type": "address"
        }
      ],
      "name": "redirectFunds",
      "outputs": [],
      "stateMutability": "nonpayable",
      "type": "function"
    },
    {
      "inputs": [],
      "name": "finalPayment",
      "outputs": [],
      "stateMutability": "payable",
      "type": "function",
      "payable": true
    }
  ],
  "bytecode": "0x60a060405260006005556000600660006101000a81548160ff0219169083151502179055503480156200003157600080fd5b5060405162000f9938038062000f9983398181016040528101906200005791906200014d565b600060028190555084436200006d9190620001d5565b60038190555082670de0b6b3a7640000856200008a919062000232565b620000969190620001d5565b60048190555081600660016101000a81548173ffffffffffffffffffffffffffffffffffffffff021916908373ffffffffffffffffffffffffffffffffffffffff1602179055508073ffffffffffffffffffffffffffffffffffffffff1660808173ffffffffffffffffffffffffffffffffffffffff1660601b81525050505050505062000339565b600081519050620001308162000305565b92915050565b60008151905062000147816200031f565b92915050565b600080600080600060a086880312156200016c576200016b62000300565b5b60006200017c8882890162000136565b95505060206200018f8882890162000136565b9450506040620001a28882890162000136565b9350506060620001b5888289016200011f565b9250506080620001c8888289016200011f565b9150509295509295909350565b6000620001e282620002c7565b9150620001ef83620002c7565b9250827fffffffffffffffffffffffffffffffffffffffffffffffffffffffffffffffff03821115620002275762000226620002d1565b5b828201905092915050565b60006200023f82620002c7565b91506200024c83620002c7565b9250817fffffffffffffffffffffffffffffffffffffffffffffffffffffffffffffffff0483118215151615620002885762000287620002d1565b5b828202905092915050565b6000620002a082620002a7565b9050919050565b600073ffffffffffffffffffffffffffffffffffffffff82169050919050565b6000819050919050565b7f4e487b7100000000000000000000000000000000000000000000000000000000600052601160045260246000fd5b600080fd5b620003108162000293565b81146200031c57600080fd5b50565b6200032a81620002c7565b81146200033657600080fd5b50565b60805160601c610c3a6200035f6000396000818161079601526108010152610c3a6000f3fe6080604052600436106100dd5760003560e01c8063b2d5ae441161007f578063d939c96011610059578063d939c9601461026b578063da38575614610296578063f251fc8c146102a0578063f851a440146102cb576100dd565b8063b2d5ae441461021f578063c59ee1dc14610236578063d7bb99ba14610261576100dd565b806342e94c90116100bb57806342e94c9014610163578063937e09b1146101a05780639d9a7fe9146101cb578063a4f642e9146101f6576100dd565b806312065fe0146100e257806329dcb0cf1461010d5780634019388314610138575b600080fd5b3480156100ee57600080fd5b506100f76102f6565b60405161010491906109b7565b60405180910390f35b34801561011957600080fd5b506101226102fe565b60405161012f91906109b7565b60405180910390f35b34801561014457600080fd5b5061014d610304565b60405161015a91906109b7565b60405180910390f35b34801561016f57600080fd5b5061018a600480360381019061018591906108c6565b61030a565b60405161019791906109b7565b60405180910390f35b3480156101ac57600080fd5b506101b5610322565b6040516101c291906109b7565b60405180910390f35b3480156101d757600080fd5b506101e0610328565b6040516101ed919061099c565b60405180910390f35b34801561020257600080fd5b5061021d600480360381019061021891906108c6565b61033b565b005b34801561022b57600080fd5b50610234610435565b005b34801561024257600080fd5b5061024b6105f8565b60405161025891906109b7565b60405180910390f35b6102696105fe565b005b34801561027757600080fd5b50610280610794565b60405161028d919061094a565b60405180910390f35b61029e6107b8565b005b3480156102ac57600080fd5b506102b5610885565b6040516102c291906109b7565b60405180910390f35b3480156102d757600080fd5b506102e061088b565b6040516102ed919061092f565b60405180910390f35b600047905090565b60035481565b60045481565b60006020528060005260406000206000915090505481565b60025481565b600660009054906101000a900460ff1681565b60001515600660009054906101000a900460ff1615151461035b57600080fd5b600660019054906101000a900473ffffffffffffffffffffffffffffffffffffffff1673ffffffffffffffffffffffffffffffffffffffff163373ffffffffffffffffffffffffffffffffffffffff16146103b557600080fd5b619d806003546103c591906109d2565b43116103d057600080fd5b8073ffffffffffffffffffffffffffffffffffffffff166108fc479081150290604051600060405180830381858888f19350505050158015610416573d6000803e3d6000fd5b506001600660006101000a81548160ff02191690831515021790555050565b60001515600660009054906101000a900460ff1615151461045557600080fd5b600354431161046357600080fd5b600a60076004546104749190610a59565b61047e9190610a28565b6005541061048b57600080fd5b60008060003373ffffffffffffffffffffffffffffffffffffffff1673ffffffffffffffffffffffffffffffffffffffff16815260200190815260200160002054116104d657600080fd5b3373ffffffffffffffffffffffffffffffffffffffff166108fc6000803373ffffffffffffffffffffffffffffffffffffffff1673ffffffffffffffffffffffffffffffffffffffff168152602001908152602001600020549081150290604051600060405180830381858888f1935050505015801561055a573d6000803e3d6000fd5b506000803373ffffffffffffffffffffffffffffffffffffffff1673ffffffffffffffffffffffffffffffffffffffff16815260200190815260200160002054600560008282546105ab9190610ab3565b9250508190555060008060003373ffffffffffffffffffffffffffffffffffffffff1673ffffffffffffffffffffffffffffffffffffffff16815260200190815260200160002081905550565b60055481565b60001515600660009054906101000a900460ff1615151461061e57600080fd5b600254341161062c57600080fd5b600354431061063a57600080fd5b60008060003373ffffffffffffffffffffffffffffffffffffffff1673ffffffffffffffffffffffffffffffffffffffff16815260200190815260200160002054141561069a576001600081548092919061069490610b41565b91905055505b346000803373ffffffffffffffffffffffffffffffffffffffff1673ffffffffffffffffffffffffffffffffffffffff16815260200190815260200160002060008282546106e891906109d2565b92505081905550346005600082825461070191906109d2565b925050819055507f106aac375bbcf013d1e52338bbf9e740009a1a3a6869f8daa1b72aa1620f5fec333460055460405161073d93929190610965565b60405180910390a160045460055410610792576107586107b8565b7ffbfd8ab7c24300fa9888cd721c8565a7da56759384781283684dcf7c7c4a846b60055460405161078991906109b7565b60405180910390a15b565b7f000000000000000000000000000000000000000000000000000000000000000081565b60001515600660009054906101000a900460ff161515146107d857600080fd5b600a60076004546107e99190610a59565b6107f39190610a28565b4710156107ff57600080fd5b7f000000000000000000000000000000000000000000000000000000000000000073ffffffffffffffffffffffffffffffffffffffff166108fc6005549081150290604051600060405180830381858888f19350505050158015610867573d6000803e3d6000fd5b506001600660006101000a81548160ff021916908315150217905550565b60015481565b600660019054906101000a900473ffffffffffffffffffffffffffffffffffffffff1681565b6000813590506108c081610bed565b92915050565b6000602082840312156108dc576108db610be8565b5b60006108ea848285016108b1565b91505092915050565b6108fc81610af9565b82525050565b61090b81610ae7565b82525050565b61091a81610b0b565b82525050565b61092981610b37565b82525050565b60006020820190506109446000830184610902565b92915050565b600060208201905061095f60008301846108f3565b92915050565b600060608201905061097a6000830186610902565b6109876020830185610920565b6109946040830184610920565b949350505050565b60006020820190506109b16000830184610911565b92915050565b60006020820190506109cc6000830184610920565b92915050565b60006109dd82610b37565b91506109e883610b37565b9250827fffffffffffffffffffffffffffffffffffffffffffffffffffffffffffffffff03821115610a1d57610a1c610b8a565b5b828201905092915050565b6000610a3382610b37565b9150610a3e83610b37565b925082610a4e57610a4d610bb9565b5b828204905092915050565b6000610a6482610b37565b9150610a6f83610b37565b9250817fffffffffffffffffffffffffffffffffffffffffffffffffffffffffffffffff0483118215151615610aa857610aa7610b8a565b5b828202905092915050565b6000610abe82610b37565b9150610ac983610b37565b925082821015610adc57610adb610b8a565b5b828203905092915050565b6000610af282610b17565b9050919050565b6000610b0482610b17565b9050919050565b60008115159050919050565b600073ffffffffffffffffffffffffffffffffffffffff82169050919050565b6000819050919050565b6000610b4c82610b37565b91507fffffffffffffffffffffffffffffffffffffffffffffffffffffffffffffffff821415610b7f57610b7e610b8a565b5b600182019050919050565b7f4e487b7100000000000000000000000000000000000000000000000000000000600052601160045260246000fd5b7f4e487b7100000000000000000000000000000000000000000000000000000000600052601260045260246000fd5b600080fd5b610bf681610ae7565b8114610c0157600080fd5b5056fea2646970667358221220ece7b88df62b3a42efd85311aa5110e5d2f63275f15cdc273770072729b240a764736f6c63430008060033",
  "immutableReferences": {
    "23": [
      {
        "length": 32,
        "start": 1942
      },
      {
        "length": 32,
        "start": 2049
      }
    ]
  },
  "source": "// SPDX-License-Identifier: MIT\r\npragma solidity >=0.7.4;\r\n\r\ncontract FundRaising {\r\n    \r\n    mapping(address=>uint) public contributions;\r\n    uint public totalContributors;\r\n    uint public minimumContribution;\r\n    uint public deadline;\r\n    uint public goal;\r\n    uint public raisedAmount = 0 ;\r\n    bool public completed = false;\r\n    address public admin;\r\n    address payable immutable public fundRecipient;\r\n\r\n     event Donation(\r\n        address _from,\r\n        uint256 _value,\r\n\tuint256 _raisedAmount\r\n    );\r\n    \r\n    event GoalReached(\r\n         uint256 _raisedAmount\r\n    );\r\n    \r\n    constructor(uint _deadline,uint _goalInt, uint _goalFloat, address creator, address _fundRecipient){\r\n        minimumContribution = 0;\r\n        deadline= block.number + _deadline;\r\n        goal=_goalInt*1e18 + _goalFloat;\r\n        admin = creator;\r\n        fundRecipient = payable(_fundRecipient);\r\n    }\r\n    \r\n    modifier onlyAdmin {\r\n        require(msg.sender == admin);\r\n        _;\r\n    }\r\n\r\n     modifier notCompleted {\r\n        require(completed == false);\r\n        _;\r\n    }\r\n    \r\n    function contribute() public payable notCompleted  {\r\n\r\n\r\n        require(msg.value > minimumContribution);\r\n        require(block.number < deadline);\r\n        \r\n        if(contributions[msg.sender] == 0)\r\n        {\r\n            totalContributors++;\r\n        }\r\n        \r\n        contributions[msg.sender] += msg.value;\r\n        raisedAmount+=msg.value;\r\n\r\n        emit Donation(msg.sender, msg.value, raisedAmount);\r\n        \r\n        if(raisedAmount >= goal){\r\n        finalPayment();\r\n        emit GoalReached(raisedAmount);\r\n\t}\r\n\t\r\n    }\r\n\r\n    \r\n    function getBalance() public view returns(uint)\r\n    {\r\n        return address(this).balance;\r\n    }\r\n    \r\n    function getRefund() public notCompleted {\r\n        require(block.number > deadline); // deadline is reached\r\n        require(raisedAmount < (goal * 7 / 10)); // raisedAmount is less than minimal goal, minimal goal is 70% of goal\r\n        require(contributions[msg.sender] > 0); // you've donated something\r\n        \r\n        \r\n        payable(msg.sender).transfer(contributions[msg.sender]);\r\n        raisedAmount -= contributions[msg.sender]; // is raisedAmount neccessary?\r\n        contributions[msg.sender] = 0;\r\n       \r\n       \r\n    }\r\n    \r\n    function redirectFunds(address newRecipient) public notCompleted onlyAdmin {\r\n        require(block.number > deadline + 40320);\r\n        payable(newRecipient).transfer(address(this).balance);\r\n        completed = true;\r\n        \r\n    }\r\n    \r\n    function finalPayment() public payable notCompleted {\r\n         require(address(this).balance >= (goal * 7 / 10)); // So this is to ensure us that we can call finalPayment when minimalGoal is reached\r\n         fundRecipient.transfer(raisedAmount);\r\n         completed = true;\r\n    }\r\n   \r\n}",
  "sourcePath": "C:/Users/root/Desktop/Udemy Solidity Developer Guide/SupportChildren/sjt/src/ethereum/contracts/FundRaising.sol",
  "compiler": {
    "name": "solc",
    "version": "0.8.6+commit.11564f7e.Emscripten.clang"
  },
  "schemaVersion": "3.4.1",
  "updatedAt": "2021-07-26T22:35:00.216Z",
  "networkType": "ethereum",
  "devdoc": {
    "kind": "dev",
    "methods": {},
    "version": 1
  },
  "userdoc": {
    "kind": "user",
    "methods": {},
    "version": 1
  }
}